:100000000C942A000C943C000C943C000C943C0092
:100010000C943C000C943C000C943C000C943C0070
:100020000C943C000C943C000C943C000C943C0060
:100030000C943C000C943C000C943C000C943C0050
:100040000C943C000C943C000C943C000C943C0040
:100050000C943C0011241FBECFE5D8E0DEBFCDBF1D
:1000600020E0A0E6B0E001C01D92A436B207E1F79F
:100070000E9457010C945F010C9400009C010197B1
:1000800019F48FEF82BB089590E080E061E070E0AA
:100090002230310541F090E080E061E070E02330F3
:1000A000310579F0089522B3AB01082E01C0440F49
:1000B0000A94EAF7242B22BB01968830910599F720
:1000C000089522B3AB01082E01C0440F0A94EAF749
:1000D000242B22BB01968830910599F708958FEF64
:1000E00082BB2FEF39E698E1215030409040E1F794
:1000F00000C0000012BA2FEF39E698E121503040DD
:100100009040E1F700C00000EBCF90E080E061E0BC
:1001100070E0873091051CF142B39B01082E01C0AD
:10012000220F0A94EAF7342F322B32BB5FEFE4E35D
:100130004CE05150E0404040E1F700C0000032B3D5
:100140002095232322BB5FEFE4E32CE05150E040F5
:100150002040E1F700C000000197F1F6DACF9B01E3
:10016000082E01C0220F0A94EAF732B3322B32BBB9
:100170004FEF54E3ECE041505040E040E1F700C065
:10018000000032B32095232322BB2FEF34E34CE051
:10019000215030404040E1F700C000000196B9CF47
:1001A0008FEF989902C082BBFCCF12BAFACF99990F
:1001B0004EC022B381E090E00090600002C0880F42
:1001C000991F0A94E2F78095822382BB8091600098
:1001D000909161009C012E5F3F4F8730910534F470
:1001E000181619063CF09C01225031093093630027
:1001F0002093620020916200309163002817390734
:1002000074F4883091055CF4999BFECF9093630061
:1002100080936200019690936100809360008091CA
:10022000600090916100209162003091630082171C
:1002300093076CF497FD0BC0999BFECF90936300DE
:100240008093620001979093610080936000809199
:10025000600090916100089510926100109260001A
:100260008FEF9FEF9093630080936200CFEF01E0E8
:1002700010E0989B02C099990CC0989B16C012BAC6
:100280009999F7CF0E94D700909361008093600006
:10029000F0CF82B398010090600002C0220F331F9C
:1002A0000A94E2F7822B82BBE4CFC2BBE6CF8FEF8A
:1002B00081BBA098A198A89AA99A0E942C01F894B1
:0202C000FFCF6E
:00000001FF
